:100000000C9462000C948A000C948A000C948A0070
:100010000C948A000C948A000C948A000C948A0038
:100020000C948A000C948A000C948A000C948A0028
:100030000C948A000C948A000C948A000C948A0018
:100040000C94E4050C948A000C94B2050C948C0575
:100050000C948A000C948A000C948A000C948A00F8
:100060000C942E060C948A00000000002400270047
:100070002A0000000000250028002B0000000000DE
:1000800023002600290004040404040404040202DA
:100090000202020203030303030301020408102007
:1000A0004080010204081020010204081020000012
:1000B0000008000201000003040700000000000027
:1000C00000004D0711241FBECFEFD8E0DEBFCDBF2B
:1000D00011E0A0E0B1E0ECE9F4E102C005900D927E
:1000E000A43BB107D9F723E0A4EBB1E001C01D9216
:1000F000A233B207E1F710E0C2E6D0E004C02197D6
:10010000FE010E94460AC136D107C9F70E94950731
:100110000C944C0A0C94000008950895AF92BF927D
:10012000CF92DF92EF92FF920F931F93CF93DF93C3
:100130006C017B018B01040F151FEB015E01AE18F2
:10014000BF08C017D10759F06991D601ED91FC9114
:100150000190F081E02DC6010995892B79F7C50141
:10016000DF91CF911F910F91FF90EF90DF90CF9093
:10017000BF90AF900895FC01538D448D252F30E042
:10018000842F90E0821B930B541710F0CF960895A4
:1001900001970895FC01918D828D981761F0A28DD1
:1001A000AE0FBF2FB11D5D968C91928D9F5F9F7397
:1001B000928F90E008958FEF9FEF0895FC01918D4D
:1001C000828D981731F0828DE80FF11D858D90E0BA
:1001D00008958FEF9FEF0895FC01918D228D892F57
:1001E00090E0805C9F4F821B91098F73992708953F
:1001F0008DE792E00E94EC0021E0892B09F420E0D9
:10020000822F089580E090E0892B29F00E94F80069
:1002100081110C9400000895FC01A48DA80FB92F42
:10022000B11DA35ABF4F2C91848D90E001968F731E
:100230009927848FA689B7892C93A089B1898C913D
:10024000837080648C93938D848D981306C002888C
:10025000F389E02D80818F7D80830895EF92FF9256
:100260000F931F93CF93DF93EC0181E0888F9B8DD9
:100270008C8D98131AC0E889F989808185FF15C093
:100280009FB7F894EE89FF896083E889F9898081B6
:100290008370806480839FBF81E090E0DF91CF9185
:1002A0001F910F91FF90EF900895F62E0B8D10E0A7
:1002B0000F5F1F4F0F731127E02E8C8D8E110CC016
:1002C0000FB607FCFACFE889F989808185FFF5CF61
:1002D000CE010E940C01F1CFEB8DEC0FFD2FF11D33
:1002E000E35AFF4FF0829FB7F8940B8FEA89FB899E
:1002F00080818062CFCFCF93DF93EC01888D8823FC
:10030000B9F0AA89BB89E889F9898C9185FD03C078
:10031000808186FD0DC00FB607FCF7CF8C9185FF5D
:10032000F2CF808185FFEDCFCE010E940C01E9CF95
:10033000DF91CF910895833081F028F4813099F0D6
:100340008230A9F008958730A9F08830C9F0843050
:10035000B1F4809180008F7D03C0809180008F7701
:1003600080938000089584B58F7784BD089584B507
:100370008F7DFBCF8091B0008F778093B000089580
:100380008091B0008F7DF9CFCF93DF93282F30E09D
:10039000F901E255FF4F8491F901E656FF4FD491E0
:1003A000F901EA57FF4FC491CC23A1F081110E94BB
:1003B0009B01EC2FF0E0EE0FFF1FE458FF4FA591DB
:1003C000B491EC91ED2381E090E009F480E0DF91BD
:1003D000CF91089580E090E0FACF1F93CF93DF9301
:1003E000282F30E0F901E255FF4F8491F901E656DC
:1003F000FF4FD491F901EA57FF4FC491CC23A9F0E4
:10040000162F81110E949B01EC2FF0E0EE0FFF1FD1
:10041000EE58FF4FA591B4918FB7F894EC9111115C
:1004200008C0D095DE23DC938FBFDF91CF911F9161
:100430000895DE2BF8CFCF93DF9390E0FC01E656D2
:10044000FF4F24918A579F4FFC0184918823C9F064
:1004500090E0880F991FFC01E859FF4FA591B491D6
:10046000FC01EE58FF4FC591D49161110DC09FB7AB
:10047000F8948C91209582238C938881282328835B
:100480009FBFDF91CF910895623051F49FB7F894E8
:100490003C91822F809583238C93E8812E2BEFCF84
:1004A0008FB7F894EC912E2B2C938FBFEACF3FB7E8
:1004B000F89480916B0290916C02A0916D02B091C2
:1004C0006E0226B5A89B05C02F3F19F00196A11D0D
:1004D000B11D3FBFBA2FA92F982F8827BC01CD018E
:1004E000620F711D811D911D42E0660F771F881FED
:1004F000991F4A95D1F708958F929F92AF92BF921C
:10050000CF92DF92EF92FF924B015C010E94570263
:100510006B017C010E9457026C197D098E099F09AD
:10052000683E734081059105A8F321E0821A910885
:10053000A108B10888EEC80E83E0D81EE11CF11CAA
:1005400081149104A104B10429F7FF90EF90DF908A
:10055000CF90BF90AF909F908F90089520911C02F4
:10056000260F3327331F21323105ECF4209140024E
:10057000FC0190E080E0243069F082E00895A091D1
:100580001C022191AC0144505E4FA40FB52FB11D48
:100590002C930196861798F380911C02680F609344
:1005A0001C0280E0089581E008951092400281E0ED
:1005B000809342021092410261E082E10E94ED01CB
:1005C00061E083E10E94ED01E9EBF0E080818E7F44
:1005D000808380818D7F808388E48093B80085E468
:1005E0008093BC000895CF93DF9391E09093FB013B
:1005F0008823B9F0C091B800D091BA008091BC00B6
:100600008A7B8093BC0060E082E10E94ED0160E0A3
:1006100083E10E94ED010E94D502D093BA00C093FD
:10062000B800DF91CF9108950895E091760280910E
:100630007502E81730F4F0E0EA52FE4F808190E056
:1006400008958FEF9FEF0895909176028091750243
:100650002FEF3FEF981748F4E92FF0E0EA52FE4FF2
:10066000208130E09F5F90937602C90108958091C8
:10067000750290917602891B990B0895CF92DF92B3
:10068000EF92FF920F931F93CF93DF937C01CB01E7
:100690008A012091D501222389F0EB016B01C40E60
:1006A000D51ECC15DD0569F06991D701ED91FC915E
:1006B0000190F081E02DC7010995F3CF642F0E94CE
:1006C000AE02C801DF91CF911F910F91FF90EF9083
:1006D000DF90CF900895CF93DF931F92CDB7DEB711
:1006E00069832091D5012223F9F0209173022032F1
:1006F00058F021E030E0FC013383228390E080E079
:100700000F90DF91CF91089580917402E82FF0E06F
:10071000EB54FE4F998190838F5F80937402809396
:10072000730281E090E0ECCF61E0CE0101960E947F
:10073000AE02F7CFCF92DF92EF92FF920F931F930B
:10074000CF93DF93FC01C48121E02093D501C093B6
:10075000B40110927402109273028385682B8AE1AF
:1007600093E00E946B03D0917302D13208F092C0E3
:100770000E9457026B017C0180914002811165C08B
:1007800082E08093400281E0809342028FEF809369
:100790003F0210926402D0936302A5EBB1E0E3E460
:1007A000F2E080E0D81385C0109265028091650266
:1007B000CC0FC82BC093650280914102813009F0B3
:1007C0007CC0109241020E9457026B017C01809113
:1007D00065028093BB008091F7019091F801A09190
:1007E000F901B091FA01892B8A2B8B2B99F00E9489
:1007F00057020091F7011091F8012091F901309111
:10080000FA016C197D098E099F0906171707280739
:100810003907E0F18091BC0083FDD9CF85EC80934E
:10082000BC000E9457026B017C0180914002823023
:1008300009F445C080913F028F3F61F180913F02F2
:10084000803241F180913F0225C08091F701909163
:10085000F801A091F901B091FA01892B8A2B8B2B19
:1008600009F48ACF0E9457020091F7011091F80114
:100870002091F9013091FA016C197D098E099F09C7
:10088000061717072807390708F076CF8091F60179
:100890000E94F30210927402109273021092D5011A
:1008A000DF91CF911F910F91FF90EF90DF90CF904C
:1008B00008959D9191938F5F75CF85EEB0CF809114
:1008C000F7019091F801A091F901B091FA01892BFB
:1008D0008A2B8B2B09F4A9CF0E9457020091F701B4
:1008E0001091F8012091F9013091FA016C197D09FC
:1008F0008E099F09061717072807390708F095CFB3
:10090000C5CF089590E080E008958F929F92AF92B6
:10091000BF920F931F93CF93DF93CDB7DEB7A1970D
:100920000FB6F894DEBF0FBECDBF19A2423008F457
:100930004AE08E010F5D1F4F842E912CB12CA12C0B
:10094000A50194010E940E0AE62FB901CA01EA30FE
:1009500044F5E05DD801EE938D01232B242B252B4C
:1009600079F790E080E0109769F0FD010190002098
:10097000E9F73197AF014A1B5B0BBD0186E293E0BB
:100980000E948E00A1960FB6F894DEBF0FBECDBFB9
:10099000DF91CF911F910F91BF90AF909F908F905B
:1009A0000895E95CD7CFFC0101900020E9F7319769
:1009B000AF01481B590BBC0186E293E00C948E00FA
:1009C0000F931F93CF938C01C62F0E949A036C2F15
:1009D0006460C8010E949A036C2F6B7FC8010E945B
:1009E0009A0383EC90E00197F1F7CF911F910F915B
:1009F00008950F931F93CF93DF938C01D62FC42FAD
:100A0000607F642B0E94E00480E1D89FB001112434
:100A10006C2BC801DF91CF911F910F910C94E004D2
:100A200040E061E086E293E00E94F9048BE39FE1FD
:100A30000197F1F70895CF93DF93CDB7DEB72897ED
:100A40000FB6F894DEBF0FBECDBF98E0E0E0F1E056
:100A5000DE01119601900D929A95E1F790912E0387
:100A6000961708F46FEF262F30E0220F331F41E076
:100A700050E04C0F5D1F240F351FF9016081680F96
:100A8000606840E086E293E028960FB6F894DEBFF7
:100A90000FBECDBFDF91CF910C94F90441E00E94CD
:100AA000F90481E090E0089585ED8093BC00809189
:100AB000F7019091F801A091F901B091FA01079620
:100AC000A11DB11D23E0B695A795979587952A9509
:100AD000D1F72091BC0024FD03C01092400208957C
:100AE0004091F7015091F8016091F9017091FA017C
:100AF000452B462B472B69F30097A105B10541F023
:100B000025E32A95F1F700000197A109B109E1CF8A
:100B10008091F6010C94F3021F920F920FB60F9280
:100B200011242F933F934F935F936F937F938F93F2
:100B30009F93AF93BF93EF93FF938DE792E00E9453
:100B40000C01FF91EF91BF91AF919F918F917F9198
:100B50006F915F914F913F912F910F900FBE0F902A
:100B60001F9018951F920F920FB60F9211242F937A
:100B70008F939F93EF93FF93E0918D02F0918E02FC
:100B80008081E0919302F091940282FD1BC09081DC
:100B9000809196028F5F8F7320919702821741F0A8
:100BA000E0919602F0E0E358FD4F958F8093960216
:100BB000FF91EF919F918F912F910F900FBE0F900A
:100BC0001F9018958081F4CF1F920F920FB60F924D
:100BD00011242F933F938F939F93AF93BF93809153
:100BE000670290916802A0916902B0916A02309107
:100BF000660223E0230F2D3758F50196A11DB11D84
:100C0000209366028093670290936802A093690222
:100C1000B0936A0280916B0290916C02A0916D0278
:100C2000B0916E020196A11DB11D80936B0290934D
:100C30006C02A0936D02B0936E02BF91AF919F9131
:100C40008F913F912F910F900FBE0F901F9018958D
:100C500026E8230F0296A11DB11DD2CF1F920F923D
:100C60000FB60F9211242F933F934F935F936F937F
:100C70007F938F939F93AF93BF93EF93FF93809155
:100C8000B900887F803609F44AC0F0F5883209F44B
:100C9000A7C018F5803109F49BC0B8F4882309F483
:100CA000F9C0883009F494C0FF91EF91BF91AF91E2
:100CB0009F918F917F916F915F914F913F912F9174
:100CC0000F900FBE0F901F901895883109F488C0BF
:100CD000803251F780933F0214C0803409F49DC0E4
:100CE00040F48033B9F38833F9F680933F0285EC02
:100CF000B0C0803509F485C0883509F496C08834C1
:100D000099F60E945405D0CF883909F48CC038F583
:100D1000883729F050F4883611F0803729F683E0BF
:100D20008093400210923E0257C0883809F47BC07D
:100D3000803919F0803809F0B7CF80913E028032B7
:100D400008F071C0E0913E0281E08E0F80933E0278
:100D50008091BB00F0E0E25EFD4F80833DC0803BB0
:100D600039F0E0F4803A09F479C0883A09F09CCF70
:100D700084E08093400210921D0210921C02E091C8
:100D80007102F0917202099580911C0281110FC0CD
:100D900081E080931C021092FC0109C0803C09F4A0
:100DA000A6CF883C09F4A3CF883B09F07DCFE09122
:100DB0001D0281E08E0F80931D02F0E0E450FE4F93
:100DC00080818093BB0090911D0280911C0229C0FC
:100DD000809165028093BB0085EC8093BC0064CF5A
:100DE0009091640280916302981758F5E091640233
:100DF00081E08E0F80936402F0E0ED5BFD4F808117
:100E0000E9CFE091640281E08E0F809364028091CB
:100E1000BB00F0E0ED5BFD4F808390916402809118
:100E200063029817C8F285E8D8CFE091640281E0A8
:100E30008E0F809364028091BB00F0E0ED5BFD4F6C
:100E400080838091420281115CCF81E080934102D6
:100E500084EA8093BC001092400226CF85EC8093F8
:100E6000BC001092400280913E02803230F4E0914A
:100E70003E02F0E0E25EFD4F108260913E0270E0C3
:100E8000E0916F02F09170028EE192E0099510926C
:100E90003E020ACF10923F0234CFEDE7F2E0138218
:100EA000128288EE93E0A0E0B0E084839583A6836D
:100EB000B7832CE031E03183208325EC30E03587A7
:100EC000248724EC30E03787268720EC30E0318B14
:100ED000208B21EC30E0338B228B22EC30E0358B01
:100EE000248B26EC30E0378B268B118E128E138EDE
:100EF000148EEAE1F3E01382128284839583A68341
:100F0000B7838EE191E091838083E6E2F3E0138280
:100F1000128280E391E09183808387E2848380E181
:100F2000818782E0828713860895789484B58260F1
:100F300084BD84B5816084BD85B5826085BD85B57D
:100F4000816085BD80916E00816080936E001092FB
:100F50008100809181008260809381008091810076
:100F60008160809381008091800081608093800007
:100F70008091B10084608093B1008091B000816065
:100F80008093B00080917A00846080937A00809191
:100F90007A00826080937A0080917A0081608093E9
:100FA0007A0080917A00806880937A001092C10064
:100FB000E0918D02F0918E0282E08083E0918902BF
:100FC000F0918A021082E0918B02F0918C028FECFA
:100FD000808310929502E0919102F091920286E056
:100FE0008083E0918F02F091900280818061808304
:100FF000E0918F02F0919002808188608083E0917F
:101000008F02F0919002808180688083E0918F024E
:10101000F091900280818F7D8083109276021092F1
:10102000750210927402109273020E94D5028CE82D
:1010300090E090937202809371028DE890E090931B
:10104000700280936F0210922B03809130038230E4
:1010500018F098E090932B0380932E0362E370E0E6
:1010600080E090E00E947C026091310386E293E090
:101070000E949A0368EE73E080E090E00E947C0298
:1010800060E386E293E00E94E004CBE4D6E4CE0184
:101090000197F1F760E386E293E00E94E004219774
:1010A000F1F760E386E293E00E94E00483E592E0DA
:1010B0000197F1F760E286E293E00E94E00460911C
:1010C0002B03606240E086E293E00E94F90484E032
:1010D00080932C0340E06CE086E293E00E94F904E8
:1010E0000E94100582E080932D0340E066E086E2D6
:1010F00093E00E94F90440E062E086E293E00E94FF
:10110000F9048BE39FE10197F1F70E94100588E055
:101110008093310360E086E293E00E949A0362E0EC
:1011200086E00E941B0262E087E00E941B0262E0F0
:1011300085E00E941B0262E084E00E941B0262E0E4
:1011400080E10E941B0260E08EE00E941B0211E021
:1011500000E4812C84E0982EA12CB12CC0E0D0E0DA
:101160008DE792E00E94EC0021E0892B09F420E059
:1011700020937C0280917C02882309F457C08DE77C
:1011800092E00E94CA008335910571F134F48434F1
:10119000910581F710927C02EDCF87359105A9F179
:1011A0008A35910539F70E94100560E080E00E94C1
:1011B0001B0582E491E00E94D30461E080E00E947C
:1011C0001B0581E591E00E94D30461E08FE00E945D
:1011D000ED0168E572E080E090E00E947C0260E052
:1011E0008FE00E94ED01C6CF0E94100560E080E014
:1011F0000E941B0581E691E00E94D30461E080E03B
:101200000E941B0580E791E0DECF0E94100560E0A0
:1012100080E00E941B0581E691E00E94D30461E01A
:1012200080E00E941B0580E891E0CDCF80E10E9424
:10123000C401892B69F480917B02812780937B0212
:1012400068EC70E080E090E00E947C020E94100553
:1012500080917B0281117CC087E00E94C40121E063
:10126000892B09F020E020937A0286E00E94C401D5
:1012700021E0892B09F020E02093790285E00E948B
:10128000C40121E0892B09F020E02093780284E05A
:101290000E94C40121E0892B09F020E0209377020D
:1012A00060E080E00E941B0581E991E00E94D30488
:1012B00080917A02882309F43FC088E391E00E947C
:1012C000D30460E087E00E941B0585E991E00E945D
:1012D000D30480917902882391F188E391E00E9400
:1012E000D30461E080E00E941B058AE991E00E943E
:1012F000D30480917802882329F188E391E00E9449
:10130000D30461E087E00E941B058EE991E00E9412
:10131000D304809177028823C1F088E391E00E9492
:10132000D304209709F41CCF0E94F800882309F405
:1013300017CF0E94000012CF8DE391E0C0CF8DE364
:1013400091E0CDCF8DE391E0DACF8DE391E0E7CF6F
:1013500000937C0080917A00806480937A00809171
:101360007A0086FDFCCF80917800A0917900BA2F99
:10137000A82F25E630E00E943F0AA50194010E94B3
:10138000EF0969017A0160E084E00E941B0583EAAD
:1013900091E00E94D30461E084E00E941B058CEA86
:1013A00091E00E94D3044AE0C701B601F7FE0EC0E7
:1013B00041E06DE286E293E00E94F9046627772718
:1013C000CB016C197D098E099F094AE00E948504B2
:1013D0008EEA91E00E94D3048EE891E0A0CF052E22
:1013E00097FB1EF400940E94060A57FD07D00E9446
:1013F0000E0A07FC03D04EF40C94060A5095409553
:10140000309521953F4F4F4F5F4F089590958095B0
:10141000709561957F4F8F4F9F4F0895A1E21A2ECF
:10142000AA1BBB1BFD010DC0AA1FBB1FEE1FFF1F88
:10143000A217B307E407F50720F0A21BB30BE40BD8
:10144000F50B661F771F881F991F1A9469F760951F
:101450007095809590959B01AC01BD01CF010895D9
:10146000A29FB001B39FC001A39F700D811D1124E5
:10147000911DB29F700D811D1124911D08950E9430
:10148000300AB7FF0895821B930B0895EE0FFF1FDC
:0C1490000590F491E02D0994F894FFCF32
:10149C000000400014005400000000002E018E00DB
:1014AC00BB007B01EC00CA00DE00000000006B03F7
:1014BC003E038204140337032403150300000000C9
:1014CC004E058E00820481044F70656E0053687562
:1014DC00740020205761726E696E67204F5645521A
:1014EC00002043757272656E74202620566F6C74E2
:1014FC000020205761726E696E67206F76657200EE
:10150C002020202063757272656E742020202000CC
:10151C002020202020766F6C7461676520202020AD
:10152C0000464C3A005F46523A00524C3A005F5229
:10153C00523A0057696E646F77203A002500207389
:04154C00687574004A
:00000001FF
