:100000000C9462000C948A000C948A000C948A0070
:100010000C948A000C948A000C948A000C948A0038
:100020000C948A000C948A000C948A000C948A0028
:100030000C948A000C948A000C948A000C948A0018
:100040000C9451040C948A000C941F040C94F90332
:100050000C948A000C948A000C948A000C948A00F8
:100060000C948A000C948A000000000024002700F1
:100070002A0000000000250028002B0000000000DE
:1000800023002600290004040404040404040202DA
:100090000202020203030303030301020408102007
:1000A0004080010204081020010204081020000012
:1000B0000008000201000003040700000000000027
:1000C0000000A20611241FBECFEFD8E0DEBFCDBFD7
:1000D00011E0A0E0B1E0EAE7F2E102C005900D9284
:1000E000A431B107D9F721E0A4E1B1E001C01D922C
:1000F000A63CB207E1F710E0C2E6D0E004C02197C9
:10010000FE010E943509C136D107C9F70E949B0440
:100110000C943B090C940000AF92BF92CF92DF92F7
:10012000EF92FF920F931F93CF93DF936C017B01AC
:100130008B01040F151FEB015E01AE18BF08C0173D
:10014000D10759F06991D601ED91FC910190F081B0
:10015000E02DC6010995892B79F7C501DF91CF9173
:100160001F910F91FF90EF90DF90CF90BF90AF90D5
:100170000895FC01538D448D252F30E0842F90E0AD
:10018000821B930B541710F0CF9608950197089592
:10019000FC01918D828D981761F0A28DAE0FBF2F5B
:1001A000B11D5D968C91928D9F5F9F73928F90E0B1
:1001B00008958FEF9FEF0895FC01918D828D981720
:1001C00031F0828DE80FF11D858D90E008958FEF5D
:1001D0009FEF0895FC01918D228D892F90E0805C26
:1001E0009F4F821B91098F739927089589E291E0AF
:1001F0000E94EA0021E0892B09F420E0822F089573
:1002000080E090E0892B29F00E94F60081110C9487
:1002100000000895FC01A48DA80FB92FB11DA35AA9
:10022000BF4F2C91848D90E001968F739927848F16
:10023000A689B7892C93A089B1898C918370806439
:100240008C93938D848D981306C00288F389E02DDA
:1002500080818F7D80830895EF92FF920F931F938B
:10026000CF93DF93EC0181E0888F9B8D8C8D981369
:100270001AC0E889F989808185FF15C09FB7F89475
:10028000EE89FF896083E889F989808183708064C1
:1002900080839FBF81E090E0DF91CF911F910F910C
:1002A000FF90EF900895F62E0B8D10E00F5F1F4F1B
:1002B0000F731127E02E8C8D8E110CC00FB607FC2A
:1002C000FACFE889F989808185FFF5CFCE010E94B8
:1002D0000A01F1CFEB8DEC0FFD2FF11DE35AFF4F1B
:1002E000F0829FB7F8940B8FEA89FB898081806246
:1002F000CFCF682F89E291E00C942C01CF93DF934C
:10030000EC01888D8823B9F0AA89BB89E889F9892D
:100310008C9185FD03C0808186FD0DC00FB607FC62
:10032000F7CF8C9185FFF2CF808185FFEDCFCE0195
:100330000E940A01E9CFDF91CF910895833081F0C7
:1003400028F4813099F08230A9F008958730A9F01F
:100350008830C9F08430B1F4809180008F7D03C073
:10036000809180008F7780938000089584B58F7787
:1003700084BD089584B58F7DFBCF8091B0008F77C9
:100380008093B00008958091B0008F7DF9CF1F93C6
:10039000CF93DF93282F30E0F901E255FF4F84918E
:1003A000F901E656FF4FD491F901EA57FF4FC49186
:1003B000CC23A9F0162F81110E949E01EC2FF0E0B2
:1003C000EE0FFF1FEE58FF4FA591B4918FB7F89431
:1003D000EC91111108C0D095DE23DC938FBFDF9123
:1003E000CF911F910895DE2BF8CFCF93DF9390E04C
:1003F000FC01E656FF4F24918A579F4FFC018491E0
:100400008823C9F090E0880F991FFC01E859FF4F3D
:10041000A591B491FC01EE58FF4FC591D4916111A3
:100420000DC09FB7F8948C91209582238C9388817E
:10043000282328839FBFDF91CF910895623051F424
:100440009FB7F8943C91822F809583238C93E88109
:100450002E2BEFCF8FB7F894EC912E2B2C938FBFD0
:10046000EACF8E50806480937C0080917A00806413
:1004700080937A0080917A0086FDFCCF809178008D
:100480009091790008953FB7F89480911901909167
:100490001A01A0911B01B0911C0126B5A89B05C0B3
:1004A0002F3F19F00196A11DB11D3FBFBA2FA92FF3
:1004B000982F8827BC01CD01620F711D811D911DF0
:1004C00042E0660F771F881F991F4A95D1F708955C
:1004D0008F929F92AF92BF92CF92DF92EF92FF9254
:1004E0000E9443024B015C0184E6C82ED12CE12C12
:1004F000F12C0E944302681979098A099B09683E18
:10050000734081059105A8F321E0C21AD108E108E2
:10051000F10888EE880E83E0981EA11CB11CC1145E
:10052000D104E104F10429F7FF90EF90DF90CF9020
:10053000BF90AF909F908F900895CF93C82F61E0A8
:100540000E94C70160E08FEF8C0F0E94C70160E03E
:100550008EEF8C0F0E94C70161E08DEF8C0FCF9161
:100560000C94C701CF93C82F60E00E94C70160E0E0
:100570008FEF8C0F0E94C70160E08EEF8C0F0E94FE
:10058000C70161E08DEF8C0FCF910C94C701CF9321
:10059000C82F61E00E94C70161E08FEF8C0F0E94BD
:1005A000C70161E08EEF8C0F0E94C70160E08DEF04
:1005B0008C0FCF910C94C701CF93C82F60E00E949D
:1005C000C70161E08FEF8C0F0E94C70161E08EEFE1
:1005D0008C0F0E94C70160E08DEF8C0FCF910C94BF
:1005E000C701CF93C82F61E00E94C70160E08FEF81
:1005F0008C0F0E94C70161E08EEF8C0F0E94C70133
:1006000060E08DEF8C0FCF910C94C701CF93C82F72
:1006100060E00E94C70160E08FEF8C0F0E94C7016D
:1006200061E08EEF8C0F0E94C70160E08DEF8C0FB0
:10063000CF910C94C701CF93C82F61E00E94C701EE
:1006400061E08FEF8C0F0E94C70160E08EEF8C0F8E
:100650000E94C70160E08DEF8C0FCF910C94C70111
:10066000CF93C82F60E00E94C70161E08FEF8C0F2D
:100670000E94C70160E08EEF8C0F0E94C70160E00E
:100680008DEF8C0FCF910C94C701CF93C82F61E0F1
:100690000E94C70160E08FEF8C0F0E94C70160E0ED
:1006A0008EEF8C0F0E94C70160E08DEF8C0FCF9111
:1006B0000C94C701CF93C82F60E00E94C70160E08F
:1006C0008FEF8C0F0E94C70160E08EEF8C0F0E94AD
:1006D000C70160E08DEF8C0FCF910C94C70100979C
:1006E00021F489E090E00C945A038130910521F4C3
:1006F00089E090E00C9445038230910521F489E073
:1007000090E00C9430038330910521F489E090E06F
:100710000C941B038430910521F489E090E00C9443
:1007200006038530910521F489E090E00C94F102F4
:100730008630910521F489E090E00C94DC0287304A
:10074000910521F489E090E00C94C702883091056E
:1007500021F489E090E00C94B202099721F489E039
:1007600090E00C949D020895009721F48DE090E0B4
:100770000C945A038130910521F48DE090E00C94A3
:1007800045038230910521F48DE090E00C94300314
:100790008330910521F48DE090E00C941B038430AC
:1007A000910521F48DE090E00C94060385309105CD
:1007B00021F48DE090E00C94F1028630910521F453
:1007C0008DE090E00C94DC028730910521F48DE0FF
:1007D00090E00C94C7028830910521F48DE090E000
:1007E0000C94B202099721F48DE090E00C949D02E4
:1007F00008951F920F920FB60F9211242F933F93DB
:100800004F935F936F937F938F939F93AF93BF9318
:10081000EF93FF9389E291E00E940A01FF91EF912B
:10082000BF91AF919F918F917F916F915F914F9108
:100830003F912F910F900FBE0F901F9018951F9210
:100840000F920FB60F9211242F938F939F93EF93D4
:10085000FF93E0913901F0913A018081E0913F01ED
:10086000F091400182FD1BC09081809142018F5F19
:100870008F7320914301821741F0E0914201F0E033
:10088000E75DFE4F958F80934201FF91EF919F911D
:100890008F912F910F900FBE0F901F901895808110
:1008A000F4CF1F920F920FB60F9211242F933F9304
:1008B0008F939F93AF93BF938091150190911601F1
:1008C000A0911701B09118013091140123E0230F7A
:1008D0002D3758F50196A11DB11D20931401809369
:1008E000150190931601A0931701B0931801809100
:1008F000190190911A01A0911B01B0911C01019660
:10090000A11DB11D8093190190931A01A0931B01A1
:10091000B0931C01BF91AF919F918F913F912F9107
:100920000F900FBE0F901F90189526E8230F029688
:10093000A11DB11DD2CF789484B5826084BD84B5E9
:10094000816084BD85B5826085BD85B5816085BDCA
:1009500080916E00816080936E0010928100809182
:10096000810082608093810080918100816080930A
:100970008100809180008160809380008091B1002F
:1009800084608093B1008091B00081608093B0005A
:1009900080917A00846080937A0080917A008260EE
:1009A00080937A0080917A00816080937A008091B0
:1009B0007A00806880937A001092C100E09139013A
:1009C000F0913A0182E08083E0913501F0913601A7
:1009D0001082E0913701F09138018FEC8083109202
:1009E0004101E0913D01F0913E0186E08083E0917C
:1009F0003B01F0913C01808180618083E0913B016B
:100A0000F0913C01808188608083E0913B01F0910E
:100A10003C01808180688083E0913B01F0913C0142
:100A200080818F7D808360E08EE00E94F50160E030
:100A300083E10E94F50162E082E00E94F501CDE0D1
:100A400061E08C2F0E94F501C150C530C9F761E00B
:100A50008FE00E94F50161E081E10E94F50161E013
:100A600082E10E94F50161E083E00E94F5019CE9CA
:100A7000892E90E0992E08E810E0CAE0D0E020E04E
:100A8000A22E20E0B22E8EE00E943102BC01990F0E
:100A9000880B990B0E94EB0720E030E04EEB52E40C
:100AA0000E94A00820E030EC4FE754E40E94410788
:100AB0006B017C01C0922501D0922601E0922701B2
:100AC000F092280183E10E943102BC01990F880B4A
:100AD000990B0E94EB0720E030E040EA50E40E94CE
:100AE000A00820E030EC4FE754E40E94410720E0EA
:100AF00030E040E250E40E94CF0620E030E040EADF
:100B000050E40E94A0082B013C0140922101509228
:100B10002201609223017092240120E030E040E73E
:100B200052E4C701B6010E949B0820E030E040E893
:100B30005FE387FD7EC0C301B2010E949B0887FD71
:100B400075C08AE590E00E9479010E946802E0EB9E
:100B5000F0E08491F4012490F8013490311089C0C0
:100B600080910001F1E08F27809300010E946802CC
:100B70008091000120E030E040E251E4882309F454
:100B8000BBC0C701B6010E949B0887FD87C020E05B
:100B900030E0A901C701B6010E949B0820E030E0C7
:100BA00040E05FE387FD75C0C701B6010E94D00633
:100BB0000E94B3070E94EB07609325017093260102
:100BC00080932701909328010E94B307CB01BE01B7
:100BD0000E940D096B017C017093200160931F013D
:100BE00090931E0180931D0161E08FE00E94C70178
:100BF00060E081E10E94C70161E082E10E94C701DB
:100C000061E083E00E94C701C6010E94B403C701EE
:100C10000E946F03A114B10409F435CF0E94F600BD
:100C2000882309F430CF0E9400002DCF87E590E0A3
:100C30008ACFC301B2010E949B0887FD03C083E5F0
:100C400090E081CF20E030E040E752E4C701B601F8
:100C50000E943C0787FF7BCF20E030E040E85FE365
:100C6000C301B2010E943C0787FF71CF84E490E08A
:100C70006ACF81110E949E01E32DF0E0EE0FFF1F6D
:100C8000E458FF4FA591B4918C91282209F468CFC4
:100C90006FCFC701B6010E94CF068ACF20E030E0B7
:100CA00040E251E4C701B6010E94A008609325010B
:100CB0007093260180932701909328010E94B30727
:100CC000CB01BE010E940D096B017C0170932001D4
:100CD00060931F0190931E0180931D0161E08FE0DE
:100CE0000E94C70160E081E10E94C70161E082E1EA
:100CF0000E94C70160E085CFC301B2010E94A00835
:100D00006093210170932201809323019093240129
:100D10000E94B307CB01BE010E940D096B017C014B
:100D20007093200160931F0190931E0180931D0119
:100D300060E08FE00E94C70161E081E10E94C7018D
:100D400060E0D5CFE9E2F1E01382128288EE93E011
:100D5000A0E0B0E084839583A683B78385E091E02B
:100D60009183808385EC90E09587848784EC90E084
:100D70009787868780EC90E0918B808B81EC90E068
:100D8000938B828B82EC90E0958B848B86EC90E049
:100D9000978B868B118E128E138E148E0895505859
:100DA000BB27AA270E94E7060C9461080E945308FB
:100DB00038F00E945A0820F039F49F3F19F426F4C5
:100DC0000C9450080EF4E095E7FB0C944A08E92FC8
:100DD0000E94720858F3BA176207730784079507D1
:100DE00020F079F4A6F50C9494080EF4E0950B2EFF
:100DF000BA2FA02D0B01B90190010C01CA01A0016D
:100E00001124FF27591B99F0593F50F4503E68F1C7
:100E10001A16F040A22F232F342F4427585FF3CF08
:100E2000469537952795A795F0405395C9F77EF4D9
:100E30001F16BA0B620B730B840BBAF09150A1F022
:100E4000FF0FBB1F661F771F881FC2F70EC0BA0FA8
:100E5000621F731F841F48F4879577956795B79530
:100E6000F7959E3F08F0B0CF9395880F08F099272B
:100E7000EE0F9795879508950E94260808F481E063
:100E800008950E9455070C9461080E945A0858F072
:100E90000E94530840F029F45F3F29F00C944A085F
:100EA00051110C9495080C9450080E94720868F334
:100EB0009923B1F3552391F3951B550BBB27AA2713
:100EC00062177307840738F09F5F5F4F220F331F4D
:100ED000441FAA1FA9F335D00E2E3AF0E0E832D015
:100EE00091505040E695001CCAF72BD0FE2F29D018
:100EF000660F771F881FBB1F261737074807AB07EA
:100F0000B0E809F0BB0B802DBF01FF2793585F4F5E
:100F10003AF09E3F510578F00C944A080C949508DD
:100F20005F3FE4F3983ED4F3869577956795B79540
:100F3000F7959F5FC9F7880F911D9695879597F94B
:100F40000895E1E0660F771F881FBB1F62177307C4
:100F50008407BA0720F0621B730B840BBA0BEE1FD9
:100F600088F7E09508950E94BA076894B1110C942F
:100F7000950808950E947A0888F09F5798F0B92F35
:100F80009927B751B0F0E1F0660F771F881F991FBE
:100F90001AF0BA95C9F714C0B13091F00E949408C4
:100FA000B1E008950C949408672F782F8827B85FD4
:100FB00039F0B93FCCF3869577956795B395D9F716
:100FC0003EF490958095709561957F4F8F4F9F4F20
:100FD0000895E89409C097FB3EF49095809570952C
:100FE00061957F4F8F4F9F4F9923A9F0F92F96E975
:100FF000BB279395F695879577956795B795F111EA
:10100000F8CFFAF4BB0F11F460FF1BC06F5F7F4F86
:101010008F4F9F4F16C0882311F096E911C0772398
:1010200021F09EE8872F762F05C0662371F096E8A1
:10103000862F70E060E02AF09A95660F771F881F70
:10104000DAF7880F9695879597F90895990F000814
:10105000550FAA0BE0E8FEEF16161706E807F9078A
:10106000C0F012161306E407F50798F0621B730B25
:10107000840B950B39F40A2661F0232B242B252BA6
:1010800021F408950A2609F4A140A6958FEF811D49
:10109000811D089597F99F6780E870E060E00895EA
:1010A0009FEF80EC089500240A9416161706180680
:1010B0000906089500240A9412161306140605065C
:1010C0000895092E0394000C11F4882352F0BB0FED
:1010D00040F4BF2B11F460FF04C06F5F7F4F8F4F50
:1010E0009F4F089557FD9058440F551F59F05F3F8B
:1010F00071F04795880F97FB991F61F09F3F79F03A
:1011000087950895121613061406551FF2CF4695BB
:10111000F1DF08C0161617061806991FF1CF86953D
:101120007105610508940895E894BB276627772721
:10113000CB0197F908950E94260808F48FEF0895CF
:101140000E94B3080C9461080E94530838F00E9472
:101150005A0820F0952311F00C944A080C9450087A
:1011600011240C9495080E94720870F3959FC1F3A6
:10117000950F50E0551F629FF001729FBB27F00D45
:10118000B11D639FAA27F00DB11DAA1F649F66279A
:10119000B00DA11D661F829F2227B00DA11D621FE9
:1011A000739FB00DA11D621F839FA00D611D221FA3
:1011B000749F3327A00D611D231F849F600D211D87
:1011C000822F762F6A2F11249F5750409AF0F1F00A
:1011D00088234AF0EE0FFF1FBB1F661F771F881F73
:1011E00091505040A9F79E3F510580F00C944A0859
:1011F0000C9495085F3FE4F3983ED4F38695779579
:101200006795B795F795E7959F5FC1F7FE2B880F18
:10121000911D9695879597F9089597FB072E16F4DB
:10122000009407D077FD09D00E94210907FC05D062
:101230003EF4909581959F4F0895709561957F4FED
:101240000895AA1BBB1B51E107C0AA1FBB1FA6170D
:10125000B70710F0A61BB70B881F991F5A95A9F75F
:1012600080959095BC01CD010895EE0FFF1F05906C
:0A127000F491E02D0994F894FFCFEB
:10127A0001000000002C018C00B9007E01EA00C8C0
:04128A0000DC000084
:00000001FF
